:030000000203AA4E
:0C03AA00787FE4F6D8FD7581360201264C
:10036C003205053205053205053205053205053223
:08037C000505320505320505F7
:10012600E4F50878097C00FD7BFF7A03796CFE7F95
:10013600181200D37FC812038475B0FF7B007A00C3
:100146007909120302E4FFEF75F003A42409F87697
:1001560032EF75F003A4240BF876050FBF08E87F8D
:100166000A12034F7B007A007909120302E4FFEFBB
:1001760075F003A4240AF87632EF75F003A4240977
:10018600F876050FBF08E87F0A12034F7B007A0056
:100196007909120302E4FFEF75F003A4240BF87645
:1001A60032EF75F003A4240AF876050FBF08E87F3E
:0601B6000A12034F8086CF
:0103BB00221F
:0E039B00C2CDE4FFE4FE0EBE14FC0FBF0FF651
:0103A9002231
:1001BC00E52C75F003A4AB29252BF9E52A35F0FACB
:0601CC008B258A2689271D
:1001D200E4FFAB25AA26A9278F827583001200F9B6
:1001E200FEE4FDEE30E71AD2CD0000000000000070
:1001F20000000000000000000000000000C2CD80EE
:100202000FD2CD00000000000000C2CD00000000AF
:10021200000000000000000000000000000000EEEE
:0B02220025E0FE0DBD08BC0FBF03A7C8
:01022D0022AE
:060302008B218A228923F1
:1003080012039BE4F524E52475F003A4AB2125230F
:10031800F9E52235F0FA1201CC0524E524C3940846
:0503280040E402039B0C
:08032D008B328A3389348D35CF
:1003350012039BE4FCECC39535500CAB32AA33A9F0
:0A034500341201CC0C80EE02039B81
:0802C9008F288B298A2A892B5A
:1002D10012039BC374089528F52CE52CC394085090
:1002E100071201BC052C80F2E4F52CC37408952893
:1002F100FFE52CC39F50071201BC052C80ED0203C2
:010301009B60
:08022E008F2D8B2E8A2F8930E1
:1002360012039B852D31E531C394085017E53175BE
:10024600F003A4AB2E2530F9E52F35F0FA1201CCD8
:10025600053180E2E4F531E531C3952D5017E531DE
:1002660075F003A4AB2E2530F9E52F35F0FA12010F
:08027600CC053180E202039B7C
:0503B600D2B2D2B32217
:10027E00D2B2D2B320B21F7F0A12038420B217E487
:10028E00F53630B2037F01227F0A1203840536E56C
:10029E0036C3946440EC20B31F7F0A12038420B34C
:1002AE0017E4F53630B3037F02227F0A120384056A
:0A02BE0036E536C3946440EC7F007F
:0102C8002213
:10038400E4FEEEC39F500FE4FDE4FC0CBC4EFC0DF8
:06039400BD3CF60E80ECFA
:01039A002240
:10034F00E4FEEEC39F5015E4FDE4FCE4FB0BBB4E53
:0C035F00FC0CBC3CF60DBD62F00E80E60C
:01036B00226F
:10000300E709F608DFFA8046E709F208DFFA803EDF
:1000130088828C83E709F0A3DFFA8032E309F608CC
:10002300DFFA8078E309F208DFFA807088828C8334
:10003300E309F0A3DFFA806489828A83E0A3F608E8
:10004300DFFA805889828A83E0A3F208DFFA804CC2
:1000530080D280FA80C680D4806980F28033801099
:1000630080A680EA809A80A880DA80E280CA803302
:1000730089828A83ECFAE493A3C8C582C8CCC5837A
:10008300CCF0A3C8C582C8CCC583CCDFE9DEE7804A
:100093000D89828A83E493A3F608DFF9ECFAA9F0C9
:1000A300EDFB2289828A83ECFAE0A3C8C582C8CC1F
:1000B300C583CCF0A3C8C582C8CCC583CCDFEADE38
:1000C300E880DB89828A83E493A3F208DFF980CC9A
:1000D30088F0EF60010E4E60C388F0ED2402B40493
:1000E3000050B9F582EB2402B4040050AF2323453A
:0600F3008223900053730C
:1000F900BB010CE58229F582E5833AF583E02250BC
:1001090006E92582F8E622BBFE06E92582F8E22205
:0D011900E58229F582E5833AF583E493221F
:00000001FF
