:0300000002000EED
:0C000E00787FE4F6D8FD75811A020055D9
:10017400020D000A050832000032000516003200A4
:09018400320005110000323200C6
:10015500D3EF9400EE94004015E4FDFC0DBD0001C5
:0E0165000CBC17F8BD70F5EF1F70E51E80E2B0
:010173002269
:070003000000007F17DFFE83
:01000A0022D3
:0701E0000000007F1CDFFEA0
:0101E70022F5
:0A01D50000007F037ED3DEFEDFFC96
:0101DF0022FD
:1001A300D2B4120003C2B41201D5D2B412000302B6
:0201B300000347
:02012700AE0721
:10012900C2B41201E0E4FDFCEE30E004D2B4800276
:10013900C2B4120003EEC313FE0DBD00010CED6441
:0C014900084C70E4D2B41201E00201E0A6
:0F01C600AA05120127AF02120127AF030201277A
:0301E800D2B4226C
:10018E00E4F589758E80758A7B758CFFC28CD2A939
:05019E00D2AFD2B9222E
:10009A00E4F91201A3E4FF120127900000E9FFC36B
:1000AA00E5829FE5839400500C7BFFE4FD7FFF12FD
:1000BA0001C6A380E8E4F583F582E9FFC374209FB3
:1000CA00FFE49400FEC3E5829FE5839E500AE4FBA9
:1000DA00FDFF1201C6A380E21201E87F647E0012CE
:0A00EA00015509E9D3942040A92232
:1001B50075B20475B1FB12018E75100112009A809B
:0101C500FB3E
:03000B000200F4FC
:1000F400C0E0C0D0E510D394085013E50F30E004FD
:10010400D2B48002C2B4E50FC313F50F8002D2B497
:100114000510E510B40B05C28C751000C28DD0D04B
:03012400D0E032F6
:10001A000201B5E493A3F8E493A34003F68001F246
:10002A0008DFF48029E493A3F85407240CC8C333E7
:10003A00C4540F4420C8834004F456800146F6DFB6
:10004A00E4800B0102040810204080900174E47ED1
:10005A00019360BCA3FF543F30E509541FFEE493AB
:10006A00A360010ECF54C025E060A840B8E493A372
:10007A00FAE493A3F8E493A3C8C582C8CAC583CA9D
:10008A00F0A3C8C582C8CAC583CADFE9DEE780BE55
:01018D000071
:00000001FF
