:0300000002038E6A
:0C038E00787FE4F6D8FD75813702012667
:10035000320505320505320505320505320505323F
:08036000050532050532050513
:10012600E4F509780A7C00FD7BFF7A037950FE7FAF
:10013600181200D37FC812036875B0FFE509703C3A
:10014600F508E508C454F0FFC374809FFEE5087502
:10015600F003A4240AF8A606EF2405FFE50875F0C7
:1001660003A4240BF8A607E50875F003A4240CF8ED
:1001760076050508E508B408C9750901E4F508E53A
:1001860008C3940850B67B007A00790AAF081202B9
:0A019600AD7F28120368050880E51C
:01039F00223B
:0E037F00C2CDE4FFE4FE0EBE14FC0FBF0FF66D
:01038D00224D
:1001A000E52675F003A4AB232525F9E52435F0FAFF
:0601B0008B278A28892933
:1001B600E4FFAB27AA28A9298F827583001200F9CC
:1001C600FEE4FDEE30E71AD2CD000000000000008C
:1001D60000000000000000000000000000C2CD800A
:1001E6000FD2CD00000000000000C2CD00000000CC
:1001F600000000000000000000000000000000EE0B
:0B02060025E0FE0DBD08BC0FBF03A7E4
:0102110022CA
:0602E6008B2F8A308931E4
:1002EC0012037FE4F532E53275F003A4AB2F253110
:1002FC00F9E53035F0FA1201B00532E532C3940855
:05030C0040E402037F44
:080311008B338A3489358D36E7
:1003190012037FE4FCECC39536500CAB33AA34A925
:0A032900351201B00C80EE02037FD4
:0802AD008F228B238A2489258E
:1002B50012037FC374089522F526E526C3940850DA
:1002C500071201A0052680F2E4F526C374089522DD
:1002D500FFE526C39F50071201A0052680ED020306
:0102E5007F99
:080212008F2A8B2B8A2C892D09
:10021A0012037F852A2EE52EC394085017E52E7502
:10022A00F003A4AB2B252DF9E52C35F0FA1201B019
:10023A00052E80E2E4F52EE52EC3952A5017E52E09
:10024A0075F003A4AB2B252DF9E52C35F0FA120134
:08025A00B0052E80E202037FD3
:05039A00D2B2D2B32233
:10026200D2B2D2B320B21F7F0A12036820B217E4BF
:10027200F53730B2037F01227F0A1203680537E5A2
:1002820037C3946440EC20B31F7F0A12036820B383
:1002920017E4F53730B3037F02227F0A12036805A1
:0A02A20037E537C3946440EC7F0099
:0102AC00222F
:10036800E4FEEEC39F500FE4FDE4FC0CBC4EFC0D14
:06037800BD3CF60E80EC16
:01037E00225C
:10033300E4FEEEC39F5015E4FDE4FCE4FB0BBB4E6F
:0C034300FC0CBC3CF60DBD62F00E80E628
:01034F00228B
:10000300E709F608DFFA8046E709F208DFFA803EDF
:1000130088828C83E709F0A3DFFA8032E309F608CC
:10002300DFFA8078E309F208DFFA807088828C8334
:10003300E309F0A3DFFA806489828A83E0A3F608E8
:10004300DFFA805889828A83E0A3F208DFFA804CC2
:1000530080D280FA80C680D4806980F28033801099
:1000630080A680EA809A80A880DA80E280CA803302
:1000730089828A83ECFAE493A3C8C582C8CCC5837A
:10008300CCF0A3C8C582C8CCC583CCDFE9DEE7804A
:100093000D89828A83E493A3F608DFF9ECFAA9F0C9
:1000A300EDFB2289828A83ECFAE0A3C8C582C8CC1F
:1000B300C583CCF0A3C8C582C8CCC583CCDFEADE38
:1000C300E880DB89828A83E493A3F208DFF980CC9A
:1000D30088F0EF60010E4E60C388F0ED2402B40493
:1000E3000050B9F582EB2402B4040050AF2323453A
:0600F3008223900053730C
:1000F900BB010CE58229F582E5833AF583E02250BC
:1001090006E92582F8E622BBFE06E92582F8E22205
:0D011900E58229F582E5833AF583E493221F
:00000001FF
