:03000000020A46AB
:0C0A4600787FE4F6D8FD758135020003CE
:100A08003205053205053205053205053205053280
:080A1800050532050532050554
:10000300E4F509F50AF50B750C05780D7C00FD7B0D
:10001300FF7A0A7908FE7F181208057FC8120A20A2
:1000230075B0FF12091A8F0AE50A64016006E50A32
:100033006402702CE50AB40113150CE50CD3940586
:100043004003750C05E50CB405168011050CE50C91
:10005300D394054003E4F50CE50CB40503E4F5097A
:10006300E50C14700302010F147003020170147085
:100073000302022614700302028814700302041A96
:100083002405709F7B007A00790D12099EE4F50820
:10009300E50875F003A4240DF87632E50875F0033E
:1000A300A4240FF876050508E508B408E37F0A12CF
:1000B30009EB7B007A00790D12099EE4F508E50847
:1000C30075F003A4240EF87632E50875F003A42432
:1000D3000DF876050508E508B408E37F0A1209EB75
:1000E3007B007A00790D12099EE4F508E50875F0A6
:1000F30003A4240FF87632E50875F003A4240EF860
:1001030076050508E508B408E3020412E4F508E5FA
:1001130008C394084003020026E50875F003A424ED
:100123000DF87605E50875F003A4240EF87632E59C
:100133000875F003A4240FF876057B007A00790D87
:1001430012099E7F011209EBE50875F003A4240D43
:10015300F87632E50875F003A4240EF87605E50871
:1001630075F003A4240FF87605050880A2E4F508CA
:10017300E50875F003A4240DF87605E50875F0038A
:10018300A4240EF87632E50875F003A4240FF8765C
:10019300057B007A00790D12099E7F011209EB0598
:1001A30008E508C3940840C8E4F508E50875F003BA
:1001B300A4240DF87605E50875F003A4240EF8765B
:1001C30005E50875F003A4240FF876327B007A0066
:1001D300790D12099E7F011209EB0508E508C39406
:1001E3000840C8E4F508E508C39408400302002664
:1001F300E50875F003A4240DF87632E50875F003DD
:10020300A4240EF87605E50875F003A4240FF87608
:10021300057B007A00790D12099E7F011209EB0517
:100223000880C3E509703DF508E50825E025E0FFF2
:10023300C374809FFEE50875F003A4240DF8A60699
:10024300EF2405FFE50875F003A4240EF8A607E5DF
:100253000875F003A4240FF876050508E508B4082B
:10026300C8750901E4F508E508C3940840030200D2
:10027300267B007A00790DAF081209657F28120AE0
:1002830020050880E2E4F508E50875F003A4240ED0
:10029300F87655E50875F003A4240DF87601E50812
:1002A30075F003A4240FF876010508E508B408D80F
:1002B3007B007A00790D12099E7F0A1209EBE4F59F
:1002C30008E50875F003A4240EF8764BE50875F0ED
:1002D30003A4240DF87617E50875F003A4240FF89A
:1002E300E4F60508E508B408D87B007A00790D1216
:1002F300099E7F0A1209EBE4F508E50875F003A4EB
:10030300240EF8764AE50875F003A4240DF8764B1D
:10031300E50875F003A4240FF876010508E508B491
:1003230008D87B007A00790D12099E7F0A1209EB27
:10033300E4F508E50875F003A4240EF8E4F6E508EF
:1003430075F003A4240DF8764BE50875F003A42497
:100353000FF876090508E508B408D87B007A007918
:100363000D12099E7F0A1209EBE4F508E50875F002
:1003730003A4240EF8E4F6E50875F003A4240DF8AD
:10038300764BE50875F003A4240FF876480508E5D5
:1003930008B408D87B007A00790D12099E7F0A12EF
:1003A30009EBE4F508E50875F003A4240EF87604D8
:1003B300E50875F003A4240DF87601E50875F0034C
:1003C300A4240FF876520508E508B408D87B007A10
:1003D30000790D12099E7F0A1209EBE4F508E5087E
:1003E30075F003A4240EF8764BE50875F003A424F6
:1003F3000DF87601E50875F003A4240FF87643059C
:1004030008E508B408D87B007A00790D12099E7FAD
:100413000A1209EB020026E4F508E50875F003A4C7
:10042300240EF87655E50875F003A4240DF876013B
:10043300E50875F003A4240FF876010508E508B470
:1004430008D87B007A00790D12099E7F50120A208A
:10045300E4F508E4F50BE50B75F003A4240EF81698
:10046300E50B75F003A4240DF80606050BE50BB4A4
:1004730008E47B007A00790D12099E7F50120A204E
:100483000508E508C3940A40CAE4F508E50875F0D1
:1004930003A4240EF8764BE50875F003A4240DF8A5
:1004A3007617E50875F003A4240FF8E4F60508E5CC
:1004B30008B408D87B007A00790D12099E7F501288
:1004C3000A20E4F508E4F50BE50B75F003A4240D0D
:1004D300F8740526F6050BE50BB408EC7B007A00EF
:1004E300790D12099E7F50120A200508E508C3946E
:1004F3000A40D2E4F508E50875F003A4240EF87663
:100503004AE50875F003A4240DF8764BE50875F069
:1005130003A4240FF876010508E508B408D87B0086
:100523007A00790D12099E7F50120A20E4F508E43F
:10053300F50BE50B75F003A4240EF874F926F6E524
:100543000B75F003A4240FF806050BE50BB408E2C2
:100553007B007A00790D12099E7F50120A2005084C
:10056300E508C3940A40C8E4F508E50875F003A458
:10057300240EF8E4F6E50875F003A4240DF8764B91
:10058300E50875F003A4240FF876090508E508B417
:1005930008D87B007A00790D12099E7F50120A2039
:1005A300E4F508E4F50BE50B75F003A4240FF874E8
:1005B3000626F6050BE50BB408EC7B007A00790DF3
:1005C30012099E7F50120A200508E508C3940A40C9
:1005D300D2E4F508E50875F003A4240EF8E4F6E583
:1005E3000875F003A4240DF8764BE50875F003A411
:1005F300240FF876480508E508B408D87B007A008C
:10060300790D12099E7F50120A20E4F508E4F50BD8
:10061300E50B75F003A4240DF874F926F6E50B75C4
:10062300F003A4240FF806050BE50BB408E27B00E6
:100633007A00790D12099E7F50120A200508E508F9
:10064300C3940A40C8E4F508E50875F003A4240E32
:10065300F87604E50875F003A4240DF87601E5089F
:1006630075F003A4240FF876520508E508B408D8FA
:100673007B007A00790D12099E7F50120A20E4F55F
:1006830008E4F50BE50B75F003A4240EF8740726B4
:10069300F6E50B75F003A4240FF816050BE50BB470
:1006A30008E27B007A00790D12099E7F50120A201E
:1006B3000508E508C3940A40C8E4F508E50875F0A1
:1006C30003A4240EF8764BE50875F003A4240DF873
:1006D3007601E50875F003A4240FF876430508E5D1
:1006E30008B408D87B007A00790D12099E7F501256
:1006F3000A20E4F508E508C3940A4003020026E44F
:10070300F50BE50B75F003A4240EF806E50B75F065
:1007130003A4240FF874FA26F6050BE50BB408E2DC
:100723007B007A00790D12099E7F50120A2005087A
:0207330080C381
:010A5700227C
:0E0A3700C2CDE4FFE4FE0EBE14FC0FBF0FF6AE
:010A4500228E
:10085800E52975F003A4AB262528F9E52735F0FA34
:060868008B2A8A2B892C6B
:10086E00E4FFAB2AAA2BA92C8F8275830012082BCA
:10087E00FEE4FDEE30E71AD2CD00000000000000CD
:10088E0000000000000000000000000000C2CD804B
:10089E000FD2CD00000000000000C2CD000000000D
:1008AE00000000000000000000000000000000EE4C
:0B08BE0025E0FE0DBD08BC0FBF03A726
:0108C900220C
:06099E008B258A26892743
:1009A400120A37E4F528E52875F003A4AB252527BA
:1009B400F9E52635F0FA1208680528E528C39408F5
:0509C40040E4020A37C7
:0809C9008B328A3389348D352D
:1009D100120A37E4FCECC39535500CAB32AA33A9AB
:0A09E100341208680C80EE020A3799
:080965008F258B268A278928C3
:10096D00120A37C374089525F529E529C394085053
:10097D0007120858052980F2E4F529C37408952556
:10098D00FFE529C39F5007120858052980ED020A7B
:01099D003722
:0808CA008F2D8B2E8A2F89303F
:1008D200120A37852D31E531C394085017E5317579
:1008E200F003A4AB2E2530F9E52F35F0FA12086893
:1008F200053180E2E4F531E531C3952D5017E5313C
:1009020075F003A4AB2E2530F9E52F35F0FA120865
:0809120068053180E2020A379A
:050A5200D2B2D2B32274
:10091A00D2B2D2B320B21F7F0A120A2020B217E441
:10092A00F52530B2037F01227F0A120A200525E548
:10093A0025C3946440EC20B31F7F0A120A2020B317
:10094A0017E4F52530B3037F02227F0A120A200535
:0A095A0025E525C3946440EC7F00FE
:010964002270
:100A2000E4FEEEC39F500FE4FDE4FC0CBC4EFC0D55
:060A3000BD3CF60E80EC57
:010A3600229D
:1009EB00E4FEEEC39F5015E4FDE4FCE4FB0BBB4EB1
:0C09FB00FC0CBC3CF60DBD62F00E80E66A
:010A070022CC
:10073500E709F608DFFA8046E709F208DFFA803EA6
:1007450088828C83E709F0A3DFFA8032E309F60893
:10075500DFFA8078E309F208DFFA807088828C83FB
:10076500E309F0A3DFFA806489828A83E0A3F608AF
:10077500DFFA805889828A83E0A3F208DFFA804C89
:1007850080D280FA80C680D4806980F28033801060
:1007950080A680EA809A80A880DA80E280CA8033C9
:1007A50089828A83ECFAE493A3C8C582C8CCC58341
:1007B500CCF0A3C8C582C8CCC583CCDFE9DEE78011
:1007C5000D89828A83E493A3F608DFF9ECFAA9F090
:1007D500EDFB2289828A83ECFAE0A3C8C582C8CCE6
:1007E500C583CCF0A3C8C582C8CCC583CCDFEADEFF
:1007F500E880DB89828A83E493A3F208DFF980CC61
:1008050088F0EF60010E4E60C388F0ED2402B40459
:100815000050B9F582EB2402B4040050AF23234500
:0608250082239007857399
:10082B00BB010CE58229F582E5833AF583E0225082
:10083B0006E92582F8E622BBFE06E92582F8E222CC
:0D084B00E58229F582E5833AF583E49322E6
:00000001FF
