:0300000002038D6B
:0C038D00787FE4F6D8FD75813602012669
:10034F003205053205053205053205053205053240
:08035F00050532050532050514
:1001260078097C007D007BFF7A03794F7E007F187B
:100136001200D37FC812036775B0FFE4F508E5081F
:1001460075F003A42409F87605E50875F003A424E0
:100156000AF87632E50875F003A4240BF876057BD9
:10016600007A0079091202E57F01120332E508756B
:10017600F003A42409F87632E50875F003A4240AEE
:10018600F87605E50875F003A4240BF8760505084E
:09019600E508C3940840A780A20B
:01039E00223C
:0E037E00C2CDE4FFE4FE0EBE14FC0FBF0FF66E
:01038C00224E
:10019F00E52C75F003A4AB29252BF9E52A35F0FAE8
:0601AF008B258A2689273A
:1001B500E4FFAB25AA26A9278F827583001200F9D3
:1001C500FEE4FDEE30E71AD2CD000000000000008D
:1001D50000000000000000000000000000C2CD800B
:1001E5000FD2CD00000000000000C2CD00000000CD
:1001F500000000000000000000000000000000EE0C
:0B02050025E0FE0DBD08BC0FBF03A7E5
:0102100022CB
:0602E5008B218A2289230F
:1002EB0012037EE4F524E52475F003A4AB2125234A
:1002FB00F9E52235F0FA1201AF0524E524C3940881
:05030B0040E402037E46
:080310008B328A3389348D35EC
:1003180012037EE4FCECC39535500CAB32AA33A92A
:0A032800341201AF0C80EE02037ED8
:0802AC008F288B298A2A892B77
:1002B40012037EC374089528F52CE52CC3940850CA
:1002C4000712019F052C80F2E4F52CC374089528CD
:1002D400FFE52CC39F500712019F052C80ED0203FC
:0102E4007E9B
:080211008F2D8B2E8A2F8930FE
:1002190012037E852D31E531C394085017E53175F8
:10022900F003A4AB2E2530F9E52F35F0FA1201AF12
:10023900053180E2E4F531E531C3952D5017E531FB
:1002490075F003A4AB2E2530F9E52F35F0FA12012C
:08025900AF053180E202037ED3
:05039900D2B2D2B32234
:10026100D2B2D2B320B21F7F0A12036720B217E4C1
:10027100F53630B2037F01227F0A1203670536E5A6
:1002810036C3946440EC20B31F7F0A12036720B386
:1002910017E4F53630B3037F02227F0A12036705A4
:0A02A10036E536C3946440EC7F009C
:0102AB002230
:10036700E4FEEEC39F500FE4FDE4FC0CBC4EFC0D15
:06037700BD3CF60E80EC17
:01037D00225D
:10033200E4FEEEC39F5015E4FDE4FCE4FB0BBB4E70
:0C034200FC0CBC3CF60DBD62F00E80E629
:01034E00228C
:10000300E709F608DFFA8046E709F208DFFA803EDF
:1000130088828C83E709F0A3DFFA8032E309F608CC
:10002300DFFA8078E309F208DFFA807088828C8334
:10003300E309F0A3DFFA806489828A83E0A3F608E8
:10004300DFFA805889828A83E0A3F208DFFA804CC2
:1000530080D280FA80C680D4806980F28033801099
:1000630080A680EA809A80A880DA80E280CA803302
:1000730089828A83ECFAE493A3C8C582C8CCC5837A
:10008300CCF0A3C8C582C8CCC583CCDFE9DEE7804A
:100093000D89828A83E493A3F608DFF9ECFAA9F0C9
:1000A300EDFB2289828A83ECFAE0A3C8C582C8CC1F
:1000B300C583CCF0A3C8C582C8CCC583CCDFEADE38
:1000C300E880DB89828A83E493A3F208DFF980CC9A
:1000D30088F0EF60010E4E60C388F0ED2402B40493
:1000E3000050B9F582EB2402B4040050AF2323453A
:0600F3008223900053730C
:1000F900BB010CE58229F582E5833AF583E02250BC
:1001090006E92582F8E622BBFE06E92582F8E22205
:0D011900E58229F582E5833AF583E493221F
:00000001FF
