:030000000204DE19
:0C04DE00787FE4F6D8FD7581360200033B
:1004A0005501015501015501015501015501015544
:0804B000010155010155010194
:1000030078097C007D007BFF7A0479A07E007F184D
:1000130012029D7FC81204B875B0FF7B007A007985
:10002300091204367F01120483E4F508E50875F02C
:1000330003A4240AF8764BE50875F003A42409F811
:100043007617E50875F003A4240BF8E4F6FB7A00B1
:1000530079091204367F011204830508E508C39465
:100063000840C9E4F508E50875F003A4240AF87606
:100073004AE50875F003A42409F8764BE50875F002
:1000830003A4240BF876017B007A00790912043665
:100093007F011204830508E508C3940840C8E4F50A
:1000A30008E50875F003A4240AF8E4F6E50875F0FA
:1000B30003A42409F8764BE50875F003A4240BF890
:1000C30076097B007A0079091204367F01120483D2
:1000D3000508E508C3940840C8E4F508E50875F089
:1000E30003A4240AF8E4F6E50875F003A42409F848
:1000F300764BE50875F003A4240BF876487B007A69
:100103000079091204367F011204830508E508C348
:10011300940840C8E4F508E50875F003A4240AF838
:100123007604E50875F003A42409F87601E508755B
:10013300F003A4240BF876527B007A0079091204A9
:10014300367F011204830508E508C3940840C8E418
:10015300F508E50875F003A4240AF8764BE508755D
:10016300F003A42409F87601E50875F003A4240B31
:10017300F876437B007A0079091204367F01120472
:10018300830508E508C3940840C8E4F508E508C3F7
:100193009408400302002CE50875F003A4240AF830
:1001A3007655E50875F003A42409F87601E508758A
:1001B300F003A4240BF876017B007A00790912047A
:0A01C300367F01120483050880C393
:0104EF0022EA
:0E04CF00C2CDE4FFE4FE0EBE14FC0FBF0FF61C
:0104DD0022FC
:1002F000E52C75F003A4AB29252BF9E52A35F0FA96
:060300008B258A268927E7
:10030600E4FFAB25AA26A9278F827583001202C3B4
:10031600FEE4FDEE30E71AD2CD000000000000003A
:1003260000000000000000000000000000C2CD80B8
:100336000FD2CD00000000000000C2CD000000007A
:10034600000000000000000000000000000000EEB9
:0B03560025E0FE0DBD08BC0FBF03A793
:010361002279
:060436008B218A228923BC
:10043C001204CFE4F524E52475F003A4AB212523A5
:10044C00F9E52235F0FA1203000524E524C39408DB
:05045C0040E40204CFA2
:080461008B328A3389348D359A
:100469001204CFE4FCECC39535500CAB32AA33A986
:0A047900341203000C80EE0204CFE1
:0803FD008F288B298A2A892B25
:100405001204CFC374089528F52CE52CC394085025
:10041500071202F0052C80F2E4F52CC37408952828
:10042500FFE52CC39F50071202F0052C80ED020456
:01043500CFF7
:080362008F2D8B2E8A2F8930AC
:10036A001204CF852D31E531C394085017E5317554
:10037A00F003A4AB2E2530F9E52F35F0FA1203006D
:10038A00053180E2E4F531E531C3952D5017E531A9
:10039A0075F003A4AB2E2530F9E52F35F0FA1203D8
:0803AA0000053180E20204CFDE
:0504EA00D2B2D2B322E2
:1003B200D2B2D2B320B21F7F0A1204B820B217E41D
:1003C200F53630B2037F01227F0A1204B80536E502
:1003D20036C3946440EC20B31F7F0A1204B820B3E2
:1003E20017E4F53630B3037F02227F0A1204B80500
:0A03F20036E536C3946440EC7F004A
:0103FC0022DE
:1004B800E4FEEEC39F500FE4FDE4FC0CBC4EFC0DC3
:0604C800BD3CF60E80ECC5
:0104CE00220B
:10048300E4FEEEC39F5015E4FDE4FCE4FB0BBB4E1E
:0C049300FC0CBC3CF60DBD62F00E80E6D7
:01049F00223A
:1001CD00E709F608DFFA8046E709F208DFFA803E14
:1001DD0088828C83E709F0A3DFFA8032E309F60801
:1001ED00DFFA8078E309F208DFFA807088828C8369
:1001FD00E309F0A3DFFA806489828A83E0A3F6081D
:10020D00DFFA805889828A83E0A3F208DFFA804CF6
:10021D0080D280FA80C680D4806980F280338010CD
:10022D0080A680EA809A80A880DA80E280CA803336
:10023D0089828A83ECFAE493A3C8C582C8CCC583AE
:10024D00CCF0A3C8C582C8CCC583CCDFE9DEE7807E
:10025D000D89828A83E493A3F608DFF9ECFAA9F0FD
:10026D00EDFB2289828A83ECFAE0A3C8C582C8CC53
:10027D00C583CCF0A3C8C582C8CCC583CCDFEADE6C
:10028D00E880DB89828A83E493A3F208DFF980CCCE
:10029D0088F0EF60010E4E60C388F0ED2402B404C7
:1002AD000050B9F582EB2402B4040050AF2323456E
:0602BD00822390021D7374
:1002C300BB010CE58229F582E5833AF583E02250F0
:1002D30006E92582F8E622BBFE06E92582F8E2223A
:0D02E300E58229F582E5833AF583E4932254
:00000001FF
