:0300000002034DAB
:0C034D00787FE4F6D8FD7581360202339B
:10030F0032050532050532050505320505320505AD
:08031F00053205053205053227
:1002330078097C007D007BFF7A03790F7E007F18AD
:100243001200D37FC812032775B0FFE4F5087B00C3
:100253007A007909AF0812026C7F0A1202F20508CC
:09026300E508C3940840E780E2BD
:01035E00227C
:0E033E00C2CDE4FFE4FE0EBE14FC0FBF0FF6AE
:01034C00228E
:10012600E52575F003A4AB222524F9E52335F0FA7D
:060136008B268A278928B0
:10013C00E4FFAB26AA27A9288F827583001200F949
:10014C00FEE4FDEE30E71AD2CD0000000000000006
:10015C0000000000000000000000000000C2CD8084
:10016C000FD2CD00000000000000C2CD0000000046
:10017C00000000000000000000000000000000EE85
:0B018C0025E0FE0DBD08BC0FBF03A75F
:010197002245
:0602A5008B2E8A2F893028
:1002AB0012033EE4F531E53175F003A4AB2E253096
:1002BB00F9E52F35F0FA1201360531E531C3940813
:0502CB0040E402033EC7
:0802D0008B328A3389348D352D
:1002D80012033EE4FCECC39535500CAB32AA33A9AB
:0A02E800341201360C80EE02033ED2
:08026C008F218B228A238924D3
:1002740012033EC374089521F525E525C39408505F
:1002840007120126052580F2E4F525C3740895219B
:10029400FFE525C39F5007120126052580ED0203C3
:0102A4003E1B
:080198008F298B2A8A2B892C88
:1001A00012033E85292DE52DC394085017E52D75C2
:1001B000F003A4AB2A252CF9E52B35F0FA12013611
:1001C000052D80E2E4F52DE52DC395295017E52D89
:1001D00075F003A4AB2A252CF9E52B35F0FA1201B2
:0801E00036052D80E202033E0A
:05035900D2B2D2B32274
:1001E800D2B2D2B320B21F7F0A12032720B217E47B
:1001F800F53630B2037F01227F0A1203270536E560
:1002080036C3946440EC20B31F7F0A12032720B33F
:1002180017E4F53630B3037F02227F0A120327055D
:0A02280036E536C3946440EC7F0015
:0102320022A9
:10032700E4FEEEC39F500FE4FDE4FC0CBC4EFC0D55
:06033700BD3CF60E80EC57
:01033D00229D
:1002F200E4FEEEC39F5015E4FDE4FCE4FB0BBB4EB1
:0C030200FC0CBC3CF60DBD62F00E80E669
:01030E0022CC
:10000300E709F608DFFA8046E709F208DFFA803EDF
:1000130088828C83E709F0A3DFFA8032E309F608CC
:10002300DFFA8078E309F208DFFA807088828C8334
:10003300E309F0A3DFFA806489828A83E0A3F608E8
:10004300DFFA805889828A83E0A3F208DFFA804CC2
:1000530080D280FA80C680D4806980F28033801099
:1000630080A680EA809A80A880DA80E280CA803302
:1000730089828A83ECFAE493A3C8C582C8CCC5837A
:10008300CCF0A3C8C582C8CCC583CCDFE9DEE7804A
:100093000D89828A83E493A3F608DFF9ECFAA9F0C9
:1000A300EDFB2289828A83ECFAE0A3C8C582C8CC1F
:1000B300C583CCF0A3C8C582C8CCC583CCDFEADE38
:1000C300E880DB89828A83E493A3F208DFF980CC9A
:1000D30088F0EF60010E4E60C388F0ED2402B40493
:1000E3000050B9F582EB2402B4040050AF2323453A
:0600F3008223900053730C
:1000F900BB010CE58229F582E5833AF583E02250BC
:1001090006E92582F8E622BBFE06E92582F8E22205
:0D011900E58229F582E5833AF583E493221F
:00000001FF
