:0300000002049166
:0C049100787FE4F6D8FD75813602000388
:10045300320505320505320505320505320505323B
:0804630005053205053205050F
:10000300E4F50878097C00FD7BFF7A047953FE7FD1
:10001300181202507FC812046B75B0FFE4FFEF752E
:10002300F003A4240AF87655EF75F003A42409F825
:100033007601EF75F003A4240BF876010FBF08DEF9
:100043007B007A0079091203E97F0A120436E4FF80
:10005300EF75F003A4240AF8764BEF75F003A4249C
:1000630009F87617EF75F003A4240BF8E4F60FBF35
:1000730008DE7B007A0079091203E97F0A1204364D
:10008300E4FFEF75F003A4240AF8764AEF75F00352
:10009300A42409F8764BEF75F003A4240BF876013A
:1000A3000FBF08DE7B007A0079091203E97F0A1289
:1000B3000436E4FFEF75F003A4240AF8E4F6EF75C1
:1000C300F003A42409F8764BEF75F003A4240BF88E
:1000D30076090FBF08DE7B007A0079091203E97FF6
:1000E3000A120436E4FFEF75F003A4240AF8E4F6D9
:1000F300EF75F003A42409F8764BEF75F003A424FD
:100103000BF876480FBF08DE7B007A0079091203EB
:10011300E97F0A120436E4FFEF75F003A4240AF81A
:100123007604EF75F003A42409F87601EF75F00364
:10013300A4240BF876520FBF08DE7B007A007909FE
:100143001203E97F0A120436E4FFEF75F003A424D7
:100153000AF8764BEF75F003A42409F87601EF75DE
:10016300F003A4240BF876430FBF08DE7B007A006C
:0D01730079091203E97F0A12043602001F09
:0104A2002237
:0E048200C2CDE4FFE4FE0EBE14FC0FBF0FF669
:010490002249
:1002A300E52C75F003A4AB29252BF9E52A35F0FAE3
:0602B3008B258A26892735
:1002B900E4FFAB25AA26A9278F827583001202764F
:1002C900FEE4FDEE30E71AD2CD0000000000000088
:1002D90000000000000000000000000000C2CD8006
:1002E9000FD2CD00000000000000C2CD00000000C8
:1002F900000000000000000000000000000000EE07
:0B03090025E0FE0DBD08BC0FBF03A7E0
:0103140022C6
:0603E9008B218A2289230A
:1003EF00120482E4F524E52475F003A4AB21252340
:1003FF00F9E52235F0FA1202B30524E524C3940877
:05040F0040E40204823C
:080414008B328A3389348D35E7
:10041C00120482E4FCECC39535500CAB32AA33A920
:0A042C00341202B30C80EE020482C9
:0803B0008F288B298A2A892B72
:1003B800120482C374089528F52CE52CC3940850C0
:1003C800071202A3052C80F2E4F52CC374089528C3
:1003D800FFE52CC39F50071202A3052C80ED0204F1
:0103E8008292
:080315008F2D8B2E8A2F8930F9
:10031D00120482852D31E531C394085017E53175EE
:10032D00F003A4AB2E2530F9E52F35F0FA1202B308
:10033D00053180E2E4F531E531C3952D5017E531F6
:10034D0075F003A4AB2E2530F9E52F35F0FA120226
:08035D00B3053180E2020482C5
:05049D00D2B2D2B3222F
:10036500D2B2D2B320B21F7F0A12046B20B217E4B7
:10037500F53630B2037F01227F0A12046B0536E59C
:1003850036C3946440EC20B31F7F0A12046B20B37C
:1003950017E4F53630B3037F02227F0A12046B059A
:0A03A50036E536C3946440EC7F0097
:0103AF00222B
:10046B00E4FEEEC39F500FE4FDE4FC0CBC4EFC0D10
:06047B00BD3CF60E80EC12
:010481002258
:10043600E4FEEEC39F5015E4FDE4FCE4FB0BBB4E6B
:0C044600FC0CBC3CF60DBD62F00E80E624
:010452002287
:10018000E709F608DFFA8046E709F208DFFA803E61
:1001900088828C83E709F0A3DFFA8032E309F6084E
:1001A000DFFA8078E309F208DFFA807088828C83B6
:1001B000E309F0A3DFFA806489828A83E0A3F6086A
:1001C000DFFA805889828A83E0A3F208DFFA804C44
:1001D00080D280FA80C680D4806980F2803380101B
:1001E00080A680EA809A80A880DA80E280CA803384
:1001F00089828A83ECFAE493A3C8C582C8CCC583FC
:10020000CCF0A3C8C582C8CCC583CCDFE9DEE780CB
:100210000D89828A83E493A3F608DFF9ECFAA9F04A
:10022000EDFB2289828A83ECFAE0A3C8C582C8CCA0
:10023000C583CCF0A3C8C582C8CCC583CCDFEADEB9
:10024000E880DB89828A83E493A3F208DFF980CC1B
:1002500088F0EF60010E4E60C388F0ED2402B40414
:100260000050B9F582EB2402B4040050AF232345BB
:0602700082239001D0730F
:10027600BB010CE58229F582E5833AF583E022503D
:1002860006E92582F8E622BBFE06E92582F8E22287
:0D029600E58229F582E5833AF583E49322A1
:00000001FF
