:0300000002064BAA
:0C064B00787FE4F6D8FD758137020003CB
:10060D00320505320505320505320505320505327F
:08061D00050532050532050553
:10000300E4F509780A7C00FD7BFF7A06790DFE7F13
:100013001812040A7FC812062575B0FFE4F508E537
:100023000875F003A4240BF87655E50875F003A4CE
:10003300240AF87601E50875F003A4240CF8760188
:100043000508E508B408D87B007A00790A1205A3ED
:100053007F50120625E4F508E4F509E50975F00378
:10006300A4240BF816E50975F003A4240AF8060680
:100073000509E509B408E47B007A00790A1205A3AF
:100083007F501206250508E508C3940A40CAE4F523
:1000930008E50875F003A4240BF8764BE50875F022
:1000A30003A4240AF87617E50875F003A4240CF8D2
:1000B300E4F60508E508B408D87B007A00790A124B
:1000C30005A37F50120625E4F508E4F509E5097553
:1000D300F003A4240AF8740526F60509E509B40813
:1000E300EC7B007A00790A1205A37F5012062505DE
:1000F30008E508C3940A40D2E4F508E50875F0035F
:10010300A4240BF8764AE50875F003A4240AF876CC
:100113004BE50875F003A4240CF876010508E508FF
:10012300B408D87B007A00790A1205A37F5012061F
:1001330025E4F508E4F509E50975F003A4240BF8B3
:1001430074F926F6E50975F003A4240CF8060509ED
:10015300E509B408E27B007A00790A1205A37F500F
:100163001206250508E508C3940A40C8E4F508E526
:100173000875F003A4240BF8E4F6E50875F003A46E
:10018300240AF8764BE50875F003A4240CF87609E5
:100193000508E508B408D87B007A00790A1205A39C
:1001A3007F50120625E4F508E4F509E50975F00327
:1001B300A4240CF8740626F60509E509B408EC7BBB
:1001C300007A00790A1205A37F501206250508E577
:1001D30008C3940A40D2E4F508E50875F003A424A3
:1001E3000BF8E4F6E50875F003A4240AF8764BE56A
:1001F3000875F003A4240CF876480508E508B4084C
:10020300D87B007A00790A1205A37F50120625E4F1
:10021300F508E4F509E50975F003A4240AF874F96F
:1002230026F6E50975F003A4240CF8060509E5098B
:10023300B408E27B007A00790A1205A37F50120604
:10024300250508E508C3940A40C8E4F508E50875E0
:10025300F003A4240BF87604E50875F003A4240A3C
:10026300F87601E50875F003A4240CF87652050826
:10027300E508B408D87B007A00790A1205A37F50F9
:10028300120625E4F508E4F509E50975F003A4244D
:100293000BF8740726F6E50975F003A4240CF81689
:1002A3000509E509B408E27B007A00790A1205A37F
:1002B3007F501206250508E508C3940A40C8E4F5F3
:1002C30008E50875F003A4240BF8764BE50875F0F0
:1002D30003A4240AF87601E50875F003A4240CF8B6
:1002E30076430508E508B408D87B007A00790A123A
:1002F30005A37F50120625E4F508E508C3940A40D8
:100303000302001FE4F509E50975F003A4240BF8C3
:1003130006E50975F003A4240CF874FA26F605091A
:10032300E509B408E27B007A00790A1205A37F503D
:07033300120625050880C336
:01065C00227B
:0E063C00C2CDE4FFE4FE0EBE14FC0FBF0FF6AD
:01064A00228D
:10045D00E52D75F003A4AB2A252CF9E52B35F0FA23
:06046D008B268A27892876
:10047300E4FFAB26AA27A9288F82758300120430D4
:10048300FEE4FDEE30E71AD2CD00000000000000CC
:1004930000000000000000000000000000C2CD804A
:1004A3000FD2CD00000000000000C2CD000000000C
:1004B300000000000000000000000000000000EE4B
:0B04C30025E0FE0DBD08BC0FBF03A725
:0104CE00220B
:0605A3008B228A2389244B
:1005A90012063CE4F525E52575F003A4AB222524C4
:1005B900F9E52335F0FA12046D0525E525C39408FC
:0505C90040E402063CC5
:0805CE008B338A3489358D3628
:1005D60012063CE4FCECC39536500CAB33AA34A9A6
:0A05E6003512046D0C80EE02063C95
:08056A008F298B2A8A2B892CB2
:1005720012063CC374089529F52DE52DC394085045
:100582000712045D052D80F2E4F52DC37408952948
:10059200FFE52DC39F500712045D052D80ED020675
:0105A2003C1C
:0804CF008F2E8B2F8A3089313A
:1004D70012063C852E32E532C394085017E5327573
:1004E700F003A4AB2F2531F9E53035F0FA12046D8E
:1004F700053280E2E4F532E532C3952E5017E53236
:1005070075F003A4AB2F2531F9E53035F0FA120465
:080517006D053280E202063C92
:05065700D2B2D2B32273
:10051F00D2B2D2B320B21F7F0A12062520B217E43F
:10052F00F53730B2037F01227F0A1206250537E522
:10053F0037C3946440EC20B31F7F0A12062520B303
:10054F0017E4F53730B3037F02227F0A1206250521
:0A055F0037E537C3946440EC7F00D9
:01056900226F
:10062500E4FEEEC39F500FE4FDE4FC0CBC4EFC0D54
:06063500BD3CF60E80EC56
:01063B00229C
:1005F000E4FEEEC39F5015E4FDE4FCE4FB0BBB4EB0
:0C060000FC0CBC3CF60DBD62F00E80E668
:01060C0022CB
:10033A00E709F608DFFA8046E709F208DFFA803EA5
:10034A0088828C83E709F0A3DFFA8032E309F60892
:10035A00DFFA8078E309F208DFFA807088828C83FA
:10036A00E309F0A3DFFA806489828A83E0A3F608AE
:10037A00DFFA805889828A83E0A3F208DFFA804C88
:10038A0080D280FA80C680D4806980F2803380105F
:10039A0080A680EA809A80A880DA80E280CA8033C8
:1003AA0089828A83ECFAE493A3C8C582C8CCC58340
:1003BA00CCF0A3C8C582C8CCC583CCDFE9DEE78010
:1003CA000D89828A83E493A3F608DFF9ECFAA9F08F
:1003DA00EDFB2289828A83ECFAE0A3C8C582C8CCE5
:1003EA00C583CCF0A3C8C582C8CCC583CCDFEADEFE
:1003FA00E880DB89828A83E493A3F208DFF980CC60
:10040A0088F0EF60010E4E60C388F0ED2402B40458
:10041A000050B9F582EB2402B4040050AF232345FF
:06042A00822390038A7397
:10043000BB010CE58229F582E5833AF583E0225081
:1004400006E92582F8E622BBFE06E92582F8E222CB
:0D045000E58229F582E5833AF583E49322E5
:00000001FF
