:0300000002041BDC
:0C041B00787FE4F6D8FD75816F020126A1
:10026600320505320505320505320505320505322A
:1002760005053205053205050000000000000000F6
:100286000000000000000000000000000000000068
:100296000000000000000000000000000000000058
:1002A6000000000000000000000000000000000048
:0102B6000047
:1001260078097C007D007BFF7A0279667E007F512C
:100136001200D37FC81203F575B0FFE4F508E50891
:1001460075F003A42409F87605E50875F003A424E0
:100156000AF87632E50875F003A4240BF876057BD9
:10016600007A00790912038B7F011203D80508E58E
:1001760008C3940840C8E4F508E50875F003A4240C
:1001860009F87605E50875F003A4240AF87605E56E
:100196000875F003A4240BF876327B007A007909FF
:1001A60012038B7F011203D80508E508C3940840A3
:1001B600C8E4F508E508C394085080E50875F0031F
:1001C600A42409F87632E50875F003A4240AF87623
:1001D60005E50875F003A4240BF876057B007A0084
:0E01E600790912038B7F011203D8050880C629
:01042C0022AD
:0E040C00C2CDE4FFE4FE0EBE14FC0FBF0FF6DF
:01041A0022BF
:1001F400E56575F003A4AB622564F9E56335F0FAAF
:060204008B5E8A5F896039
:10020A00E4FFAB5EAA5FA9608F827583001200F9D2
:10021A00FEE4FDEE30E71AD2CD0000000000000037
:10022A0000000000000000000000000000C2CD80B5
:10023A000FD2CD00000000000000C2CD0000000077
:10024A00000000000000000000000000000000EEB6
:0B025A0025E0FE0DBD08BC0FBF03A790
:010265002276
:06038B008B5A8A5B895CBD
:1003910012040CE4F55DE55D75F003A4AB5A255C30
:1003A100F9E55B35F0FA120204055DE55DC39408D9
:0503B10040E402040C11
:0803B6008B6B8A6C896D8D6E62
:1003BE0012040CE4FCECC3956E500CAB6BAA6CA94A
:0A03CE006D1202040C80EE02040C14
:080352008F618B628A638964EC
:10035A0012040CC374089561F565E565C3940850E9
:10036A00071201F4056580F2E4F565C37408956126
:10037A00FFE565C39F50071201F4056580ED02048D
:01038A000C66
:0802B7008F668B678A68896974
:1002BF0012040C85666AE56AC394085017E56A75DF
:1002CF00F003A4AB672569F9E56835F0FA1202046B
:1002DF00056A80E2E4F56AE56AC395665017E56A38
:1002EF0075F003A4AB672569F9E56835F0FA1202DA
:0802FF0004056A80E202040C10
:05042700D2B2D2B322A5
:10030700D2B2D2B320B21F7F0A1203F520B217E48C
:10031700F56F30B2037F01227F0A1203F5056FE5FF
:100327006FC3946440EC20B31F7F0A1203F520B318
:1003370017E4F56F30B3037F02227F0A1203F50536
:0A0347006FE56FC3946440EC7F0083
:010351002289
:1003F500E4FEEEC39F500FE4FDE4FC0CBC4EFC0D87
:06040500BD3CF60E80EC88
:01040B0022CE
:1003D800E4FEEEC39F5015E4FDE4FCE4FB0BBB4ECA
:0C03E800FC0CBC3CF60DBD62F00E80E683
:0103F40022E6
:10000300E709F608DFFA8046E709F208DFFA803EDF
:1000130088828C83E709F0A3DFFA8032E309F608CC
:10002300DFFA8078E309F208DFFA807088828C8334
:10003300E309F0A3DFFA806489828A83E0A3F608E8
:10004300DFFA805889828A83E0A3F208DFFA804CC2
:1000530080D280FA80C680D4806980F28033801099
:1000630080A680EA809A80A880DA80E280CA803302
:1000730089828A83ECFAE493A3C8C582C8CCC5837A
:10008300CCF0A3C8C582C8CCC583CCDFE9DEE7804A
:100093000D89828A83E493A3F608DFF9ECFAA9F0C9
:1000A300EDFB2289828A83ECFAE0A3C8C582C8CC1F
:1000B300C583CCF0A3C8C582C8CCC583CCDFEADE38
:1000C300E880DB89828A83E493A3F208DFF980CC9A
:1000D30088F0EF60010E4E60C388F0ED2402B40493
:1000E3000050B9F582EB2402B4040050AF2323453A
:0600F3008223900053730C
:1000F900BB010CE58229F582E5833AF583E02250BC
:1001090006E92582F8E622BBFE06E92582F8E22205
:0D011900E58229F582E5833AF583E493221F
:00000001FF
