:030000000201E812
:0C01E800787FE4F6D8FD75816002022FDC
:1004CC007EF907F2D4F17A0EC52AEE1BEAFB26233D
:1004DC00DA03401872FA121412E7FA03020002034C
:0504EC00010203020102
:1003E40001090001080020301932050532050532E3
:1003F40005053205053205053205053205053205C8
:1004040005320505320505320505320505320505B7
:100414003205053205053205050F0A320505320598
:0A0424000532050532050532050515
:10001600E4F54B7F64120530120547D2AFE4F5498B
:10002600E54975F003A42419F8E4F6E54975F003EB
:10003600A4241AF8E4F6E54975F003A4241BF8E4B1
:10004600F60549E549B410D87B007A0079191204FF
:10005600A17F01120513E4F54AC37408950875F0EB
:1000660003A424CCF582E43404F583E493FFE54A43
:100076009004E793FEEFA806088002C313D8FCFF9E
:10008600E54A75F003A4240AF8A607C37408950880
:10009600FFE49400FE9004CD75F003EF120495EE94
:1000A60075F003A42583F583E493FDE54A9004E700
:1000B60093FCEDA804088002C313D8FCFDE54A753D
:1000C600F003A4240BF8A6059004CE75F003EF12F6
:1000D6000495EE75F003A42583F583E493FFE54AC2
:1000E6009004E793FEEFA806088002C313D8FCFF2E
:1000F600E54A75F003A4240CF8A607054AE54A6408
:1001060005600302005FE4F54AE54AC3941540031F
:1001160002005CE4F549E50875F003A424CCF582F9
:10012600E43404F583E493FFE54975F003A4241948
:10013600F8A607E50875F003A424CDF582E4340497
:10014600F583E493FFE54975F003A4241AF8A6079E
:10015600E50875F003A424CEF582E43404F583E4BF
:1001660093FFE54975F003A4241BF8A6070549E5A6
:1001760049B410A2854A49E4FFE549D39400404FAB
:10018600EF9405504AE5499410503FEF75F003A4EB
:10019600240AF8E6FEE54975F003A42416F8A60637
:1001A600EF75F003A4240BF8E6FEE54975F003A409
:1001B6002417F8A606EF75F003A4240CF8E6FEE56E
:1001C6004975F003A42418F8A60615490F80AA7BE2
:1001D600007A0079191204A17F32120530054A020D
:0201E600010F07
:10054700D2B2D2B3D2B2D288D2A8D2B3D28AD2AAE6
:010557002281
:030003000202E610
:1002E600C0E0C0F0C083C082C0D075D000C000C0DE
:1002F60001C002C003C004C005C006C007C2AF5398
:100306008FEF538FDF7F281205300509E509B40406
:1003160003750900D2AF438F10438F20D007D00654
:10032600D005D004D003D002D001D000D0D0D082E6
:07033600D083D0F0D0E032CB
:0300130002033DA8
:10033D00C0E0C0F0C083C082C0D075D000C000C086
:10034D0001C002C003C004C005C006C007C2AF5340
:10035D008FEF538FDF7F281205300508E508B409AC
:10036D0003750800D2AF438F10438F20D007D006FE
:10037D00D005D004D003D002D001D000D0D0D0828F
:07038D00D083D0F0D0E03274
:0100060022D7
:0E055800C2CDE4FFE4FE0EBE14FC0FBF0FF692
:010566002272
:10027400E55775F003A4AB542556F9E55535F0FA66
:060284008B508A518952E3
:10028A00E4FFAB50AA51A9528F8275830012046809
:10029A00FEE4FDEE30E71AD2CD00000000000000B7
:1002AA0000000000000000000000000000C2CD8035
:1002BA000FD2CD00000000000000C2CD00000000F7
:1002CA00000000000000000000000000000000EE36
:0B02DA0025E0FE0DBD08BC0FBF03A710
:0102E50022F6
:0604A1008B4C8A4D894ED0
:1004A700120558E4F54FE54F75F003A4AB4C254E04
:1004B700F9E54D35F0FA120284054FE54FC3941064
:0504C70040E4020558AD
:0804F1008B5D8A5E895F8D605E
:1004F900120558E4FCECC39560500CAB5DAA5EA9EB
:0A0509005F1202840C80EE02055818
:08042F008F538B548A55895646
:10043700120558C374109553F557E557C3941050D8
:1004470007120274055780F2E4F557C374109553E9
:10045700FFE557C39F5007120274055780ED020549
:01046700583C
:080394008F588B598A5A895BCE
:10039C0012055885585CE55CC394105017E55C75E4
:1003AC00F003A4AB59255BF9E55A35F0FA12028437
:1003BC00055C80E2E4F55CE55CC395585017E55CA0
:1003CC0075F003A4AB59255BF9E55A35F0FA120226
:0803DC0084055C80E202055873
:10053000E4FEEEC39F500FE4FDE4FC0CBC4EFC0D4A
:06054000BD3CF60E80EC4C
:010546002292
:10051300E4FEEEC39F5015E4FDE4FCE4FB0BBB4E8D
:0C052300FC0CBC3CF60DBD62F00E80E646
:01052F0022A9
:1001F400020016E493A3F8E493A34003F68001F20B
:1002040008DFF48029E493A3F85407240CC8C3330B
:10021400C4540F4420C8834004F456800146F6DFDA
:10022400E4800B01020408102040809003E4E47E83
:10023400019360BCA3FF543F30E509541FFEE493CF
:10024400A360010ECF54C025E060A840B8E493A396
:10025400FAE493A3F8E493A3C8C582C8CAC583CAC1
:10026400F0A3C8C582C8CAC583CADFE9DEE780BE79
:01042E0000CD
:10046800BB010CE58229F582E5833AF583E0225049
:1004780006E92582F8E622BBFE06E92582F8E22293
:0D048800E58229F582E5833AF583E49322AD
:0C049500A42582F582E5F03583F5832272
:00000001FF
