:03000000020724D0
:0C072400787FE4F6D8FD75816102076B58
:100A08007EF907F2D4F17A0EC52AEE1BEAFB2623FB
:100A1800DA03401872FA121412E7FA03020002030A
:050A28000102030201C0
:1009200001090001080020301932050532050532A1
:100930000505320505320505320505320505320586
:100940000532050532050532050532050532050576
:100950003205053205053205050F0A320505320557
:0A09600005320505320505320505D4
:10001600E4F54C7F64120A6C120A83D2AFE4F54908
:10002600E54975F003A42419F8E4F6E54975F003EB
:10003600A4241AF8E4F6E54975F003A4241BF8E4B1
:10004600F60549E549B410D87B007A0079191209FA
:10005600DD7F01120A4FE5091470030200F71470E0
:10006600030201AF14700302023914700302033C49
:1000760014700302054D240560030206E8E4F54901
:10008600E50875F003A42408F582E4340AF583E450
:1000960093FFE54975F003A42419F8A607E508754A
:1000A600F003A42409F582E4340AF583E493FFE51A
:1000B6004975F003A4241AF8A607E50875F003A409
:1000C600240AF582E4340AF583E493FFE54975F0E2
:1000D60003A4241BF8A6070549E549B410A27B0032
:1000E6007A0079191209DD7F01120A4FE50902002B
:1000F6005CE4F549E54975F003A42419F8E4F6E54E
:100106004975F003A4241AF8E4F6E54975F003A44A
:10011600241BF8E4F60549E549B410D87B007A00BB
:1001260079191209DD7F01120A4FE4F549E549C341
:100136009410400302005CE50875F003A42408F55A
:1001460082E4340AF583E493FFE54975F003A424B9
:1001560019F8A607E50875F003A42409F582E43426
:100166000AF583E493FFE54975F003A4241AF8A67B
:1001760007E50875F003A4240AF582E4340AF5833A
:10018600E493FFE54975F003A4241BF8A6077B005A
:100196007A0079191209DD7F01120A4FE509640117
:1001A600600302005C05498084E4F54AE54AC3948D
:1001B60009400302005CE4F549E54A75F003A4240E
:1001C60008F582E4340AF583E493FFE54975F00304
:1001D600A42419F8A607E54A75F003A42409F582B4
:1001E600E4340AF583E493FFE54975F003A4241A81
:1001F600F8A607E54A75F003A4240AF582E4340A52
:10020600F583E493FFE54975F003A4241BF8A607DC
:100216000549E549B410A27B007A0079191209DD77
:100226007F05120A4FE5096402600302005C054A75
:100236000201B2E4F549E54975F003A42419F8E48E
:10024600F6E54975F003A4241AF8E4F6E54975F0D5
:1002560003A4241BF8E4F60549E549B410D87B004D
:100266007A0079191209DD7F01120A4FE4F54AE591
:100276004AC39409400302005CE4F549E54975F078
:1002860003A42419F8E4F6E54975F003A4241AF842
:10029600E4F6E54975F003A4241BF8E4F60549E500
:1002A60049B410D87B007A0079191209DD7F011252
:1002B6000A4FE4F549E54A75F003A42408F582E4FB
:1002C600340AF583E493FFE54975F003A42419F88D
:1002D600A607E54A75F003A42409F582E4340AF575
:1002E60083E493FFE54975F003A4241AF8A607E50D
:1002F6004A75F003A4240AF582E4340AF583E493EC
:10030600FFE54975F003A4241BF8A6077B007A00D5
:1003160079191209DD7F01120A4FE509B4030905AF
:1003260049E549C39410408DE50964036003020062
:100336005C054A020275E4F54AC37408950875F02F
:1003460003A42408F582E4340AF583E493FFE54A1E
:10035600900A2393FEEFA806088002C313D8FCFF79
:10036600E54A75F003A4240AF8A607C3740895089D
:10037600FFE49400FE900A0975F003EF1209D1EE2E
:1003860075F003A42583F583E493FDE54A900A23DB
:1003960093FCEDA804088002C313D8FCFDE54A755A
:1003A600F003A4240BF8A605900A0A75F003EF12D1
:1003B60009D1EE75F003A42583F583E493FFE54A9E
:1003C600900A2393FEEFA806088002C313D8FCFF09
:1003D600E54A75F003A4240CF8A607054AE54A6425
:1003E60005600302033FE4F54AE54AC3941540035A
:1003F60002005CE4F549E50875F003A42408F582DB
:10040600E4340AF583E493FFE54975F003A424195F
:10041600F8A607E50875F003A42409F582E4340A72
:10042600F583E493FFE54975F003A4241AF8A607BB
:10043600E50875F003A4240AF582E4340AF583E49A
:1004460093FFE54975F003A4241BF8A6070549E5C3
:1004560049B410A2854A49E4F54BE549D3940050C6
:1004660003020531E54B94054003020531E5499445
:1004760010400302052AE54B900A2893FFE508750C
:10048600F003A42408F582E4340AF583E493FEA875
:1004960007088002C313D8FCFFE54B75F003A424BC
:1004A6000AF8E62FFFE54975F003A42416F8A60717
:1004B600E54B900A2893FFE50875F003A42409F597
:1004C60082E4340AF583E493FEA807088002C31386
:1004D600D8FCFFE54B75F003A4240BF8E62FFFE5E7
:1004E6004975F003A42417F8A607E54B900A28934C
:1004F600FFE50875F003A4240AF582E4340AF583BF
:10050600E493FEA807088002C313D8FCFFE54B75E9
:10051600F003A4240CF8E62FFFE54975F003A424A4
:1005260018F8A6071549054B0204607B007A007986
:10053600191209DD7F32120A6CE5096404600302B0
:10054600005C054A0203EFE4F54AC3740895087592
:10055600F003A42408F582E4340AF583E493FFE566
:100566004A900A2393FEEFA806088002C313D8FC1C
:10057600FFE54A75F003A4240AF8A607C374089594
:1005860008FFE49400FE900A0975F003EF1209D102
:10059600EE75F003A42583F583E493FDE54A900AFE
:1005A6002393FCEDA804088002C313D8FCFDE54A9A
:1005B60075F003A4240BF8A605900A0A75F003EF5C
:1005C6001209D1EE75F003A42583F583E493FFE5C4
:1005D6004A900A2393FEEFA806088002C313D8FCAC
:1005E600FFE54A75F003A4240CF8A607054AE54A78
:1005F60064056003020550E4F54AE54AC3941540D4
:100606000302005CE4F549E50875F003A42408F547
:1006160082E4340AF583E493FFE54975F003A424E4
:1006260019F8A607E50875F003A42409F582E43451
:100636000AF583E493FFE54975F003A4241AF8A6A6
:1006460007E50875F003A4240AF582E4340AF58365
:10065600E493FFE54975F003A4241BF8A6070549B2
:10066600E549B410A2854A49E4F54BE549D394001F
:100676004054E54B9405504EE54994105042E54BE5
:1006860075F003A4240AF8E6FFE54975F003A424EF
:1006960016F8A607E54B75F003A4240BF8E6FFE56C
:1006A6004975F003A42417F8A607E54B75F003A4D3
:1006B600240CF8E6FFE54975F003A42418F8A6070C
:1006C6001549054B80A57B007A0079191209DD7F53
:1006D60032120A6CE5096405600302005C054A02F1
:1006E6000600E4F549E54975F003A42419F8E4F693
:1006F600E54975F003A4241AF8E4F6E54975F00314
:10070600A4241BF8E4F60549E549B410D87B007A21
:0E0716000079191209DD7F01120A4F02005C02
:100A8300D2B2D2B3D2B2D288D2A8D2B3D28AD2AAA5
:010A93002240
:03000300020822CE
:10082200C0E0C0F0C083C082C0D075D000C000C09C
:1008320001C002C003C004C005C006C007C2AF5356
:100842008FEF538FDF7F28120A6C0509E509B40682
:1008520003750900D2AF438F10438F20D007D00613
:10086200D005D004D003D002D001D000D0D0D082A5
:07087200D083D0F0D0E0328A
:0300130002087967
:10087900C0E0C0F0C083C082C0D075D000C000C045
:1008890001C002C003C004C005C006C007C2AF53FF
:100899008FEF538FDF7F28120A6C0508E508B4092A
:1008A90003750800D2AF438F10438F20D007D006BD
:1008B900D005D004D003D002D001D000D0D0D0824E
:0708C900D083D0F0D0E03233
:0100060022D7
:0E0A9400C2CDE4FFE4FE0EBE14FC0FBF0FF651
:010AA2002231
:1007B000E55875F003A4AB552557F9E55635F0FA21
:0607C0008B518A5289539F
:1007C600E4FFAB51AA52A9538F827583001209A484
:1007D600FEE4FDEE30E71AD2CD0000000000000076
:1007E60000000000000000000000000000C2CD80F4
:1007F6000FD2CD00000000000000C2CD00000000B6
:10080600000000000000000000000000000000EEF4
:0B08160025E0FE0DBD08BC0FBF03A7CE
:0108210022B4
:0609DD008B4D8A4E894F8C
:1009E300120A94E4F550E55075F003A4AB4D254F7E
:1009F300F9E54E35F0FA1207C00550E550C39410DF
:050A030040E4020A942A
:080A2D008B5E8A5F89608D6118
:100A3500120A94E4FCECC39561500CAB5EAA5FA965
:0A0A4500601207C00C80EE020A9454
:08096B008F548B558A56895701
:10097300120A94C374109554F558E558C394105053
:10098300071207B0055880F2E4F558C37410955464
:10099300FFE558C39F50071207B0055880ED020AC0
:0109A30094BF
:0808D0008F598B5A8A5B895C89
:1008D800120A9485595DE55DC394105017E55D755E
:1008E800F003A4AB5A255CF9E55B35F0FA1207C0B2
:1008F800055D80E2E4F55DE55DC395595017E55D5A
:1009080075F003A4AB5A255CF9E55B35F0FA1207DC
:08091800C0055D80E2020A94B3
:100A6C00E4FEEEC39F500FE4FDE4FC0CBC4EFC0D09
:060A7C00BD3CF60E80EC0B
:010A82002251
:100A4F00E4FEEEC39F5015E4FDE4FCE4FB0BBB4E4C
:0C0A5F00FC0CBC3CF60DBD62F00E80E605
:010A6B002268
:10073000020016E493A3F8E493A34003F68001F2C9
:1007400008DFF48029E493A3F85407240CC8C333CA
:10075000C4540F4420C8834004F456800146F6DF99
:10076000E4800B0102040810204080900920E47E00
:10077000019360BCA3FF543F30E509541FFEE4938E
:10078000A360010ECF54C025E060A840B8E493A355
:10079000FAE493A3F8E493A3C8C582C8CAC583CA80
:1007A000F0A3C8C582C8CAC583CADFE9DEE780BE38
:01096A00008C
:1009A400BB010CE58229F582E5833AF583E0225008
:1009B40006E92582F8E622BBFE06E92582F8E22252
:0D09C400E58229F582E5833AF583E493226C
:0C09D100A42582F582E5F03583F5832231
:00000001FF
