:03000000020016E5
:0C001600787FE4F6D8FD75811002005DD3
:0B000600030C0000000408FEFDFBF7E7
:1000A200E4F50FF510F50C750D00750E10D2AFC208
:1000B20088D2A8C28AD2AAE51070FCE50FB4040364
:1000C200E4F50F7408250FF8E6F580050F7F01129D
:0400D200013380E393
:03000300020105F2
:10010500C0E0C083C082C0D075D000C001C002C0AD
:1001150003C2AAAB0CAA0DA90EE412014AD2AAD0B9
:0E01250003D002D001D0D0D082D083D0E032FF
:030013000200D612
:1000D600C0E0C083C082C0D075D000C001C002C0DD
:1000E60003C2A8AB0CAA0DA90E740112014AD2A82C
:0F00F600D003D002D001D0D0D082D083D0E0325E
:10013300E4FCECC39F500FE4FEE4FD0DBDFFFC0E99
:06014300BEFFF60C80EC8B
:010149002293
:100022000200A2E493A3F8E493A34003F68001F252
:1000320008DFF48029E493A3F85407240CC8C333DF
:10004200C4540F4420C8834004F456800146F6DFAE
:10005200E4800B0102040810204080900006E47E38
:10006200019360BCA3FF543F30E509541FFEE493A3
:10007200A360010ECF54C025E060A840B8E493A36A
:10008200FAE493A3F8E493A3C8C582C8CAC583CA95
:10009200F0A3C8C582C8CAC583CADFE9DEE780BE4D
:0100110000EE
:10014A00BB010689828A83F0225002F722BBFE0194
:02015A00F3228E
:00000001FF
